:020000040800F2
:10000000E007002065010008D1250008FF1900085D
:1000100000000000000000000000000000000000E0
:10002000000000000000000000000000D5250008CE
:100030000000000000000000D3250008D7250008BC
:1000400077010008770100087701000877010008B0
:1000500077010008770100087701000877010008A0
:100060007701000877010008770100087701000890
:100070007701000877010008770100087701000880
:100080007701000877010008770100087701000870
:10009000770100087701000877010008011A0008BD
:1000A0007701000877010008770100087701000850
:1000B00077010008E92C00087701000877010008A3
:1000C00000F002F800F03EF80CA030C80838241800
:1000D0002D18671EA246AB4654465D46AC4201D180
:1000E00000F030F87E460F3EB6460FCC0126334274
:1000F00000D0FB1A3343A246AB46184758310000E4
:1001000078310000103A02D378C878C1FAD8520783
:1001100001D330C830C101D504680C6070470000BD
:100120000023002400250026103A01D378C1FBD813
:10013000520700D330C100D50B6070471FB51FBDFB
:1001400010B510BD00F07CF81146FFF7F7FF02F084
:10015000D1FD00F094F803B4FFF7F2FF03BC00F008
:100160009BF800000748804707480047FEE7FEE786
:10017000FEE7FEE7FEE7FEE704480549054A064BB1
:1001800070470000DF250008C1000008E0010020E2
:10019000E0070020E0030020E003002001E004C0AD
:1001A000091F0429FBD28B0701D50280801CC907D7
:1001B00000D00270704700290BD0C30702D0027034
:1001C000401C491E022904D3830702D50280801CEB
:1001D000891EE3E70022EEE70022DFE77047704761
:1001E00070471F22030C02D10F2200041CD0030E03
:1001F00001D10002083A030F01D10001121F830F41
:1002000001D18000921E002801DB4000521ED20561
:100210005118021251181922904004D3491C002889
:1002200001D14908490008467047C10FC90700D0ED
:100230004042012292071143D3E701218907D0E709
:10024000754600F025F8AE46050069465346C008DD
:10025000C000854618B020B5FFF78EFF60BCB646DB
:1002600000260027C0C5C0C5C0C5C0C5C0C5C0C523
:10027000C0C5C0C5403D490849008D46704710B50E
:100280000446C046C0462046FFF765FF10BD00008B
:10029000004870471000002001491820ABBEFEE75F
:1002A00026000200704710B5014620314A78022A24
:1002B00012D1026813680E24A3431360136801244B
:1002C000A3431360C26B006C2346834053604C70A1
:1002D000002000220A7010BD042282630120002247
:1002E0000A7010BDB0B5014620314A78022A16D1F5
:1002F000026813680E24A343136013680125AB43FF
:100300001360C26B036C2C469C40546000240C703C
:100310004D70416B002900D088472046B0BD0421B4
:1003200081630120B0BD2121405C7047B0B5044617
:1003300000F0E2F80546601C02D004480078041979
:1003400000F0DAF8401BA042FAD3B0BD0000002054
:10035000F0B58AB002900D68002D00D1B9E05E487A
:10036000029A824201D0052000E004201723DB0618
:10037000D2180A23DA410092042A00D30090002701
:100380003B463C4608912A460BE013433360079BEB
:10039000641C0A681046E040BF1C1B1D002800D1E9
:1003A00097E001200646A6403240F1D00490079322
:1003B00003200346BB400397DF4349680D460540D1
:1003C0006B1E012B0697059113D80192029A906833
:1003D0003840089BDB68039FBB4003439360C8061B
:1003E000C00FA0405368B3431646019A034373609D
:1003F00006E0032D029E039F02D10546079B1EE0E7
:10040000F0680699084008998B68BB400343F36085
:10041000022D079B13D11C2018400F218140E308B7
:100420009B00F3181D6A8D43089E31698140294362
:100430001962079B7068029E032505900540BD4028
:100440003068069908402843306005988003800F83
:100450000899049D9CD022490868284308600868D0
:10046000284009900C2018400F2181400323254685
:100470009D43099B1B4EAB598B4300998140194307
:10048000A9510899154EB5684868C3020FD51543A0
:10049000B560F56883020FD49543F56075688303F2
:1004A0000FD4954375603368C00310D56DE795434D
:1004B000B560F5688302EFD51543F5607568830371
:1004C000EFD5154375603368C00300D55DE79343EE
:1004D0005CE70AB0F0BDC0460010004800040140CF
:1004E0001810024008000140002A02D01822815052
:1004F0007047282281507047014800687047C04605
:10050000D8010020B0B50246034640335C78022093
:10051000202C17D11C78012C14D02420587010687E
:1005200002680124A2430260220305689543056026
:1005300002680A43026001682143016000201870CC
:1005400020215970B0BDB0B50246034640335C78F7
:100550000220202C17D11C78012C14D02420587094
:10056000106802680124A24302600F22120205688B
:10057000954309022943016001682143016000207D
:10058000187020215970B0BD70477047F0B581B028
:100590000122150201688B691C462C4066426641A7
:1005A0000F6880243C4067426741374304D1466C62
:1005B000012737434764CD61654265415E051646B4
:1005C00000D52E46002E05D19502466C08273743EC
:1005D0004764CD61654265419B05134609D4002BF4
:1005E0000AD0416C0B22114201D001F08FFA01B008
:1005F000F0BD2B46002BF4D15202436C02241C4365
:100600004464CA61416C0B221142EED1EFE780B520
:1006100002689169436B1268002B00D0984780BD37
:1006200070470000F0B581B0002822D0044605468E
:1006300040356878002804D100202870204600F05A
:10064000D9F9242068702068026801218A43026079
:100650000F2212066368934303618368194A1340AB
:100660008360A368E668012E06D1CE03334383601E
:100670000AE0012001B0F0BD2127BF023B438360A7
:10068000022E01D1CB02436043680F4E1E434660E9
:10069000C3681340C360226963691343A2691202ED
:1006A0001A43C260E269236A1343036002680A4383
:1006B000026000206064202169702063A87001B08E
:1006C000F0BDC046FF7FFFFF0080000270470000C2
:1006D000F0B587B0069104460146403148780225BE
:1006E000202800D0A1E005910878012800D19CE0E5
:1006F00003930492012505980570FFF7FDFE064659
:1007000021688869000419D42220059A50701020AD
:10071000907000226264039860850498606262634E
:10072000608D000AAC4D02921DD0069A2A4048689E
:10073000AA4D0540091DFF2346481FE0EF0302E0D4
:1007400088693842E0D0FFF7D7FE801B21681A285D
:10075000F6D388693842F3D0606C20210843606486
:10076000059A51706EE0638D48689C4A0240069875
:100770002840DDB22D042D18091D35480C9F2A4351
:1007800002430A602385608D002846D0069892496E
:100790000840069012E0608D208521684A68924BDF
:1007A0001A40C0B20004104301225206091D069BE4
:1007B000184310430860608D00282ED0204639462B
:1007C000324601F001FE012500282ED1606A216821
:1007D000496A0170608D401E6085606A401C6062DD
:1007E000208D401E2085618D0029E4D00004E2D1D7
:1007F00000968021002220463B4601F075FD00282E
:1008000013D1608D000AC6D0FF202085216848687A
:10081000754A1040091D754AC9E7204639463246D7
:1008200001F040FE002803D00125284607B0F0BDA6
:1008300020682021C16142686D4B13404360059AD6
:100840005170029D002010709070284607B0F0BDD6
:10085000002400020024FF01F0B587B00691044691
:100860000146403148780225202800D0A0E00591BB
:100870000878012800D19BE0039304920125059894
:100880000570FFF739FE064621688869000419D40F
:100890002120059A50701020907000226264039805
:1008A0006085049860626263608D000A4A4D02921E
:1008B0001DD0069A2A404868484D0540091DFF236F
:1008C00048481FE0EF0302E088693842E0D0FFF7B4
:1008D00013FE801B21681A28F6D388693842F3D0AA
:1008E000606C202108436064059A51706DE0638D4F
:1008F00048683A4A024006982840DDB22D042D1877
:10090000091D37480C9F2A4302430A602385608DE6
:10091000002845D0069830490840069012E0608DC6
:10092000208521684A68304B1A40C0B20004104349
:1009300001225206091D069B184310430860608D72
:1009400000282DD020463946324601F0EEFD012523
:1009500000282DD12068616A0A788262608D401E6D
:100960006085481C6062208D401E2085618D0029B5
:10097000E5D00004E3D100968021002220463B46CA
:1009800001F0B2FC002813D1608D000AC7D0FF200F
:10099000208521684868144A1040091D134ACAE797
:1009A00020463946324601F07DFD002803D001255E
:1009B000284607B0F0BD20682021C16142680C4B79
:1009C00013404360059A5170029D00201070907092
:1009D000284607B0F0BDC046FF030000009800FCA9
:1009E000002000020020FF01009C00FC0000FF012D
:1009F00000E800FE70B586B000681749884201D053
:100A000006B070BD154D286801260596B10408434F
:100A10002860286808400090032004900024039474
:100A200012200290C020019000980D4801A9FFF704
:100A30008FFC7005A9680143A960A9680140009175
:100A40000098172528462146224600F067F82846D8
:100A500000F058F806B070BD005400401410024079
:100A600000040048704770471A48007802490A6835
:100A7000101808607047C046D801002010B5DD4846
:100A8000016810220A4302600024204600F004F8A6
:100A900000F022F8204610BD70B504467D20C0004D
:100AA0000C4E317802F0B6FA0146DA48006802F0DE
:100AB000B1FA00F03BFC0125032C08D8002806D130
:100AC0000025E84321462A4600F028F874602846AD
:100AD00070BDC0460000002082B0094801680122B4
:100AE00011430160016811400191019911074268A9
:100AF0000A434260406808400090009802B0704786
:100B000018100240002805D41F210840012181400F
:100B1000014801607047C04600E100E0002805D4AC
:100B20000322034693430A4A9A1803E00C22024028
:100B3000064BD2188007C00E8901C9B28140FF233D
:100B400083401068984308431060704714ED00E03C
:100B500000E400E0F0B585B004468078C0074C4B57
:100B60004FD00120039001071A1F1068084002901F
:100B700006D110680843106010680840049004987B
:100B800000920191434E3068C00513D403980702C8
:100B9000306838433060FFF7AFFC054630683842B4
:100BA00008D1FFF7A9FC401B6428F7D90325284684
:100BB00005B0F0BD03252802354B1968014012D05D
:100BC0006268024091420ED00398000419681A68C6
:100BD00002431A601A6882431A6008462E4A10407F
:100BE0001860C80745D118682B490840616801435F
:100BF00019600298002804D1009A1068019988436E
:100C000010602068C10709D181070FD4810616D46E
:100C100081031CD400254005C9D521E019690322B0
:100C20009143A2680A431A618107EFD503210904A1
:100C30001A698A43E168114319618106E8D5196987
:100C40001022914322690A431A618103E2D519698E
:100C500080229143A2690A431A6100254005A6D566
:100C6000186940218843616901431961284605B02C
:100C7000F0BDFFF741FC06465F4F054B1868800743
:100C8000B1D4FFF739FC801BB842F6D98FE7C046D4
:100C90002010024000700040FFFCFFFFF0B581B063
:100CA000002847D00446534A1368012003408B4272
:100CB00008D213680126B3430B4313601268324015
:100CC0008A4238D1009121688A07694B11D54A07B9
:100CD00007D507221202664B1B681343644A136050
:100CE000634B1A68F0239A43A3681343604A136066
:100CF0005F4BC90722D13F49086801263040009A5E
:100D0000904205D90868B04308600868C00712D14E
:100D10002078400706D50720000219688143E06863
:100D2000084318601A681007810F5248022912D22E
:100D3000044650E00126304601B0F0BD6168032949
:100D40000DD01A1F02290FD0012912D11268920367
:100D50000646F0D511E0032926D1474C3BE01A6B3B
:100D600092030646E7D508E0126892010646E2D5EE
:100D700003E0126892070646DDD518680326B043E3
:100D800008431860FFF7B8FB07461B4D384B18683F
:100D90000C210140606880008142ACD0FFF7ACFBC1
:100DA000C01BA842F2D9C6E70321CB033049896AA8
:100DB0000F240C403149095D94021A40240F304D34
:100DC0002C5D9A4202D033049A4200E02A4802F095
:100DD00021F94443264B18680006000F0749085CB8
:100DE000C4400C48046000263046FFF755FE3046EC
:100DF00001B0F0BD00200240881300000A32000854
:100E0000044800681A4909684905490F024A515CBB
:100E1000C84070470C0000201A320008B0B51449D1
:100E20000A681007830F1348022B00D2B0BD032BB2
:100E300001D11148B0BD0323DB03896A0F240C40A4
:100E40000E49095D94021A40240F0D4D2C5D9A4203
:100E500007D001231B049A4202F0DCF844432046E9
:100E6000B0BD054802F0D6F844432046B0BDC046A8
:100E70000410024000127A00006CDC0232320008DA
:100E800022320008F0B587B004460120002C00D1C2
:100E900045E204902078C007F94E05940CD07168A3
:100EA0000C200140042900D090E03068800303D575
:100EB0006068002800D120E12078800721D5706883
:100EC0000007800F0ED070680C210140082900D067
:100ED0009DE00320C003716801400120C0038142EE
:100EE00000D094E030688007059C03D5E0680128B5
:100EF00000D002E13068F82188432169C90001432C
:100F00003160059C2078000724D42078400737D42E
:100F10002078C00600D4D3E005984069411D00D177
:100F2000C2E0012800D030E1706B042101437163FD
:100F3000706B012101437163FFF7DEFA0546706BA8
:100F4000800700D5B4E0FFF7D7FA411B0320022940
:100F5000F5D9E4E1706AE169002900D181E001215D
:100F600008437062FFF7C8FA0546706A8007CCD460
:100F7000FFF7C2FA401B0228F7D9032007B0F0BDE3
:100F8000012003900107F0690840029006D1F06942
:100F90000843F061F0690840069006980191E14F1E
:100FA0003868C0054AD40398040238682043386082
:100FB000FFF7A2FA0546386820423FD1FFF79CFAB6
:100FC000401B6428F7D9032007B0F0BD71680140C9
:100FD000082908D10320C0037168014001200004E2
:100FE000814200D161E7616801204704002900D1F6
:100FF00017E1052900D12BE1012900D12CE10104E1
:1010000032688A43326081043068884327E130685F
:10101000059CE168002936D0012108433060FFF7C4
:101020006BFA05463068800700D563E7FFF764FA7E
:10103000401B0228F6D9032007B0F0BD0598806850
:10104000002800D1B6E0052800D1C9E0012800D170
:10105000CAE0306A039988433062306A04218843C9
:10106000C5E0012188437062FFF746FA0546706AC1
:10107000800700D449E7FFF73FFA401B0228F6D962
:10108000032007B0F0BD012188433060FFF734FA38
:1010900005463068800700D433E7FFF72DFA411B7F
:1010A00003200229F5D93AE1706B0421884370636B
:1010B000706BF821884305998969C9000143716300
:1010C0000598007880060BD571680C2001400C292A
:1010D00039D1706B800303D50598006A01280CD1C3
:1010E0000598446A002C00D1E1E070680C210140B1
:1010F000082905D1012C00D0C4E0049807B0F0BD48
:101100000120020631680492914331604706FFF7DF
:10111000F3F90546022C0BD1049C3068384200D10B
:10112000DEE0FFF7E9F9411B03200229F5D9F6E0DB
:101130003068384200D1BAE0FFF7DEF9411B0320E6
:101140000229F5D9EBE071680140082905D1032097
:10115000C003716801408142BBD0706B0599096A78
:10116000002900D1A9E001210A04104370634C0456
:10117000FFF7C2F90546706B2042B1D1FFF7BCF909
:10118000411B03200229F6D9C9E0706B04210143F9
:101190007163706B012188437063FFF7ADF90546F9
:1011A000706B80078CD5FFF7A7F9411B032002293C
:1011B000F6D9B4E0306A039988433062306A04217A
:1011C00088433062584CFFF797F90546306A80072C
:1011D0001DD5FFF791F9411B0320A142F6D99EE0EE
:1011E000306A042101433162306A03990843306256
:1011F0004D4CFFF781F90546306A800707D4FFF7A9
:101200007BF9401BA042F7D9032007B0F0BD02983C
:101210000028059C00D07BE6F06901998843F061C5
:1012200076E6010432688A43326080043168814383
:101230003160FFF761F90546059C3068384200D1FE
:101240003AE6FFF759F9411B03206429F5D966E016
:10125000810432680A433260010430680843306018
:10126000FFF74AF905463068384200D024E6FFF718
:1012700043F9401B6428F6D9032007B0F0BDC046EF
:10128000001002400320C20370680240F16A059C0E
:10129000A36A9A42049D0DD10F221140236B9942FB
:1012A00008D191040840E16A8842284637D10020DD
:1012B00007B0F0BD284607B0F0BD01210A049043F5
:1012C00070634C04FFF718F90546706B204200D19B
:1012D00006E7FFF711F9411B03200229F5D91EE0AB
:1012E000F06A0F218843059A116B0143F1627B205C
:1012F000C00371688143D06A0843916A01437160F9
:10130000306820433060FFF7F7F804463068384211
:10131000CDD1FFF7F1F8011B03200229F6D907B060
:10132000F0BDC0460070004088130000401E010E52
:1013300001D0012070470749074A506007480368F9
:101340000B40032189075918016000209060072194
:1013500011607047FFFFFF0010E000E020ED00E0AB
:1013600070B5044680202058202810D10120002983
:1013700017D0002A15D001252803A368834208D17D
:10138000C80706D02069002803D1284670BD022076
:1013900070BD256600266666204601F06DFB0028BC
:1013A00000D070BD206E01282846FAD12068102197
:1013B0000162EFF31080012282F310882268136823
:1013C0000B43136080F31088304670BD10B50A4699
:1013D000044600680749884205D17D20C3000648BD
:1013E000064900F09FFA054940222046FFF7B8FF62
:1013F00010BDC046004800405001002008000020F9
:1014000070477047F0B589B00368DE691A6820211B
:10141000089205910A40514251410127FD022C4694
:101420002F3407963440203C661EB4410C439C6820
:1014300060D002A98CC106900246583201950F3542
:10144000079F2F42089807D0E7490140012326460D
:101450001E40711800D09BE01023014619404E42F7
:101460004E413D46394619404F424F410698016E64
:1014700001290498014643D139460029014642D04A
:10148000002943D02F46012399050C40664266414E
:10149000E9020146039A00D53146002900D1F5E062
:1014A0008021089A11404C424C4139060146069869
:1014B00000D52146002900D18AE14025089929401C
:1014C0004C424C41790600D50494049900290FD16F
:1014D000EFF3108183F3108802681368AB43136045
:1014E00081F310880021C1660599C16700F086FA72
:1014F00009B0F0BD816E0029FAD0884709B0F0BD6F
:1015000000290146BCD131460029BBD103980362B2
:101510008068400600D5C0E0548810880892528840
:10152000002A0699E4D0A042E2D00794EFF3108499
:10153000012282F3108809256D010E683768AF43D8
:10154000376084F31088EFF3108482F310880D68FD
:10155000AE689643AE6084F31088059C089DAC622B
:1015600000248C660C66EFF3108482F310880A68FE
:1015700015689D43156084F3108802224A66079A15
:10158000801A82B208461146FFF720FF09B0F0BD6D
:10159000190201404C424C41F9070498014600D021
:1015A00021460029039D03D12B62D16A1943D162E0
:1015B00074427441B907014600D52146002905D17E
:1015C00002212962D16A04240C43D462744274411A
:1015D0007907014600D52146002905D10421296259
:1015E000D16A02240C43D46202990E4374427441BE
:1015F0003907064600D52646002E04D10821296267
:10160000D46A0C43D4629906089E0E407442744119
:1016100001990F42069E0CD020463C4600280BD173
:101620002962D16A05980143D162D16A002907D1A4
:101630005EE73C460028F3D0D16A002900D157E785
:10164000174605982146014002984442444100292A
:10165000049800D0204600283C4608D1B16E0029ED
:1016600005D030461C46884723463C463568E16A2B
:1016700028220A40A9684020014089185ED13046DE
:10168000FFF7BFFE0020E06209B0F0BD190511624E
:101690000698FFF7B5FE09B0F0BD1746069E706FBD
:1016A000016849688AB2002A00D121E73C88A24239
:1016B00000D31DE73A4679808069202833D0EFF3C4
:1016C0001081012080F31088494A2032346825684F
:1016D0001540256081F31088EFF3108180F31088A6
:1016E000326894688443946081F31088EFF310812A
:1016F00080F31088326894684025AC43946081F38D
:1017000010880599B96200213166EFF3108180F3EA
:101710001088306802689A43026081F31088706F05
:10172000FEF7C1FD3A460220706610885188401AC3
:1017300081B23046FFF74AFE09B0F0BDEFF31081E9
:1017400083F31088092252011D4633681C689443B4
:101750001C6081F31088EFF3108185F310883268E4
:1017600093680895AB43936081F31088316E01292B
:101770000BD1EFF31081089A82F310883268136856
:101780001024A343136081F310880599B9620021E6
:101790003166B16631688968490620D5EFF310815A
:1017A000089A82F31088326893688343936081F3C8
:1017B0001088706F002812D00C494163FEF792FD2B
:1017C000002800D194E6706F416B884709B0F0BDE6
:1017D000C16E002900D18BE6884709B0F0BD3046C4
:1017E000FFF70FFE09B0F0BD2001000479270008C3
:1017F000DFFEFFFFB0B500282FD00446C06F0028E1
:1018000005D1782000212154204600F029F8242019
:10181000E067206801680125A9430160204601F0C6
:1018200081F8012817D0606A002802D0204600F015
:10183000D7FE0920C00221684A6882434A6088684E
:101840002A22904388600868012202430A602046E9
:1018500000F030FF05462846B0BD0120B0BD0000B5
:10186000B0B586B0002405940494039402940194C6
:1018700000682749884221D02649884245D1264818
:1018800081680122059252041143816081681140F0
:1018900000910099016811430160006810400090B8
:1018A00004940394022002900C20019000980920D7
:1018B000C00601A9FEF74CFD06B0B0BD1648816810
:1018C00001220592930419438160816819400091B7
:1018D0000099D10402680A43026000680840009041
:1018E000032004900394022002903020019000987D
:1018F0000A4801A9FEF72CFD1D252846214622464F
:10190000FFF70CF92846FFF7FDF806B0B0BDC0465A
:101910000048004000440040141002400008004805
:1019200070470000F0B585B00546C06F202811D182
:10193000012000290CD01646002A09D001200703F7
:10194000AA68BA4209D1CA0707D02A69002A04D175
:1019500005B0F0BD022005B0F0BD019103932C4607
:1019600050340020029060632120E867FEF7C4FD38
:10197000049066802680A868B84202D128690028B1
:1019800001D0019F02E000270198029003990BE02B
:10199000029A1188184B19400185921C0292374611
:1019A00003996088401E60806088002810D00091F4
:1019B0008021002628463246049B01F0C3F8002807
:1019C00014D12868002FE3D0397801857F1CE7E720
:1019D0000091402100222846049B01F0B3F8202109
:1019E000E9670028B4D0032005B0F0BD2020E867E7
:1019F000032005B0F0BDC046FF0100007047FEE7C0
:101A000080B50748006880694005400F03D004484E
:101A1000FEF7BCFD80BD0248FEF7F9FD80BDC04663
:101A20007400002080B5406A816B002901D000223B
:101A30004A6301464031C26B002A01D00023536340
:101A40004A78602A07D120224A7000220A70026375
:101A5000FEF79AFD80BD00220A700263FEF7E0FDEA
:101A600080BD0000F0B583B006464036717828226C
:101A70000A400568282A21D1A969AC69AA6802929E
:101A8000EB68FE22240CC903C90FC768022F1BD1C3
:101A900001911946029BDF0967407C07A40F1FD004
:101AA0000B461340002232702A68B824A2432A60F1
:101AB00001991A46FEF769FD03B0F0BD00203070B1
:101AC0000820E86103B0F0BD002333702B68B8260E
:101AD000B3432B6014402246FEF757FD03B0F0BD20
:101AE000826C521C8264826C022AEBD1064C1A462C
:101AF00022400023836433700823EB610199FEF7D1
:101B000044FD03B0F0BDC046FF03000070B50446BD
:101B1000054640356A780020A870D84BE36260859E
:101B2000636C0B4363646978283A022A0AD8282038
:101B3000014028291AD0F2216A780240282A1AD1B5
:101B4000042219E0697821680A68FE239A430A6032
:101B50008A69920718D48A69D20719D18A69012340
:101B600013438B616A78602A24D014E042216A789A
:101B70000240282AE4D0B4220A4321680B68934328
:101B80000B6068703D4815E088628A69D207E5D02D
:101B90006A78602A0ED020226A708B699B0609D56C
:101BA0008B69DB0605D51023CB61636C04261E43CD
:101BB0006664CA616063A06B226B002813D0212A7F
:101BC00001D0112A0FD10A68520404D501229203D0
:101BD0000B6893430B60FEF7A6FB01282CD16878B5
:101BE000602816D11FE0E06B002819D0222A01D00E
:101BF000122A15D10A68120404D50122D2030B68F7
:101C000093430B60FEF78FFB012829D16878602889
:101C100009D00020287020632046FEF701FD70BD2A
:101C20006878602815D12020687000202870206313
:101C30002046FEF7A9FC70BD00202870A06B10495B
:101C40004163FEF74FFB002809D0A06B416B88472A
:101C500070BD0020287020632046FEF7E1FC70BDB7
:101C600000202870E06B06494163FEF73BFB00282B
:101C7000F5D0E06B416B884770BDC04685200008F9
:101C8000251A0008F0B583B002910446026817686F
:101C900006464036707820210191D161F72101403C
:101CA000FC20C543212904D0222908D122212B461A
:101CB00000E0AB1C7078106818401060216300953C
:101CC0000123D9035068084350605068EC4D05402B
:101CD0005560906980070FD49069C007029D11D0AC
:101CE0009B03780414D40F421BD010688843106003
:101CF000E76B002F12D114E0002090629069C007BA
:101D0000029DEDD19069184390619B037804EAD558
:101D1000106898431060A76B002F02D038684068A5
:101D2000608568070ED5606A526A0270606A401C5E
:101D30006062228D0025002A04D0501E2085608D0F
:101D4000401E6085608D002803D0606C0422024331
:101D500062640027B7706763606C002831D0616CE3
:101D60002046FFF7D3FE7078282849D14348E06227
:101D70002763019870706763B770680712D5606A4F
:101D80002168496A0170606A401C6062208D0028E9
:101D900008D0618D491E6185401E2085606C04213C
:101DA000014361647078707820680168FE22914375
:101DB000016037701021C1612046FEF787FC03B037
:101DC000F0BDE06A2D4A90420BD170780199717094
:101DD00037702763222810D12046FEF743FE03B058
:101DE000F0BD104622681568B7701D420AD10D4239
:101DF000009B05460CD0424907E02046FEF733FE23
:101E000003B0F0BD3D49009B0546106808401060D6
:101E1000707829280AD12820707021212163377019
:101E20007178014028290FD00A330EE070782A28F3
:101E300019D12820707022212163377071780140F8
:101E4000282909D0083308E0BA3310681840106018
:101E50002046FEF708FE06E0B83310681840106010
:101E60002046FEF7FFFDE56201987070377027632A
:101E70002046FEF72BFC03B0F0BDC0460000FFFF7C
:101E8000B0B501680C6802464032002393706504C7
:101E900003D4240405D51A4C00E0184C0D682540E5
:101EA0000D605478292C0CD1282454702125056309
:101EB000137053782340F422D243282B16D0921C5F
:101EC00015E054782A2C10D128245470222505635B
:101ED000137053782340F422D243282B00D1B03220
:101EE0000B6813400B60FEF7BDFDB0BDB2320B684E
:101EF00013400B60FEF7B7FDB0BDC046FFBFFFFF4C
:101F0000FF7FFFFFF0B585B00E46044640300490D9
:101F100020688169C90606D400210F46012582691F
:101F2000D30545D448E01021C1618169890637D4C1
:101F3000711C32D015460120002E6CD1860303900F
:101F4000C7030297FEF7D8FA206842680499897897
:101F500083693B4209D0324007D1202905D041682E
:101F600031434160FEF7C8FA054620688169890659
:101F700005D4FEF7C1FA401B1A28F6D377E0816931
:101F80008906029FDED50BE08169890608D4816944
:101F9000890605D48169890602D481698906F3D549
:101FA0002021C1610127042101258269D30503D5C0
:101FB0002B02C36129432F466B02560506D41A42F1
:101FC0000AD1002F0BD1002005B0F0BDAD02C561D4
:101FD000082529431A4202D0C361022211438269B3
:101FE000920701D5002282628269D20703D18269F9
:101FF0000123134383614268214B13404360606CAB
:10200000084360642020049948700020087088709C
:10201000012005B0F0BD810302910390C00301903F
:10202000019F03E0206881698906B9D4FEF764FA4C
:10203000401BB042F6D920684268049989788369C8
:102040003B420BD0029B1A4008D1202906D04168A0
:10205000029A11434160FEF74FFA054620688069F5
:102060008006DFD4FEF748FA401B1A28F6D3206812
:1020700081692421039F01258269D30598D49BE7B8
:1020800000E800FEF0B583B0164604464020205C10
:10209000E26A012802D1022003B0F0BD0D462046BD
:1020A00040300127029007700E40B00609D5204647
:1020B000294601943C461746FFF7E4FD3A46274679
:1020C000019CF0061AD470072AD430077ED4B007DA
:1020D000029E21D5608D002800D1B8E02068616A99
:1020E0000A788262481C6062208D401E2085608DC7
:1020F000401E60850020307003B0F0BD608D002868
:102100002FD020681021C161606C042101436164FB
:1021100071480242029E61D00020307003B0F0BDD1
:10212000608D0028029E0CD0606A2168496A0170A7
:10213000606A401C6062208D401E2085608D401EBC
:102140006085608D0028E7D164488242E4D0206831
:1021500002680021B170530465D4120467D5614A46
:1021600062E0029E70785D4928283FD1780682425D
:102170003CD1E16200202063202171706063B07067
:10218000690712D5616A2268526A0A70616A491C3D
:102190006162218D002908D0628D521E6285491E20
:1021A0002185616C04220A43626471787178216828
:1021B0000A68FE239A430A6030701020C8612046E6
:1021C000FEF784FA0020307003B0F0BD2046FFF720
:1021D00049FC029E0020307003B0F0BD616C2046C7
:1021E000FFF794FC0020307003B0F0BD1546727804
:1021F00020681023C361292A8ED18D428CD0816939
:10220000890701D5002181628169C90702D18169ED
:102210003943816102680021B170530422D4120451
:1022200024D5304A1FE02E4A0368134003607278B9
:10223000292A2BD1282272702123236331707378CD
:102240001340F421C943282B1ED1B23139E0224872
:10225000024200D060E72046FFF712FE00203070F7
:1022600003B0F0BD1E4A0368134003607278292A48
:102270000CD12822727021232363317073781340AC
:10228000F421C943282B1BD0891C1AE072782A2A12
:1022900000D041E7282272702223236331707378C3
:1022A0001340F421C943282B00D1B03102680A4001
:1022B00002602046FEF7D6FB0020307003B0F0BD70
:1022C000B23102680A4002602046FEF7CCFB0020D3
:1022D000307003B0F0BDC046FFFFFFFE0000FFFFFF
:1022E000FFBFFFFFFF7FFFFFF0B583B01C46154621
:1022F0000E460746036899693140891B4A424A41A4
:102300000020AA4234D1611C2BD0002C32D10446CB
:10231000FEF7F2F8386881693140891B4A424A4128
:10232000AA4240D080693040801B41424141A942CD
:10233000EED0204603B0F0BD99693140891B4A4276
:102340004A41AA4214D199693140891B4A424A4103
:10235000AA420DD199693140891B4A424A41AA4299
:1023600006D199693140891B4A424A41AA42E3D0C9
:1023700003B0F0BD01900898029006E080693040FB
:10238000801B41424141A9421AD1FEF7B5F802999A
:10239000411A3868A142F1D981693140891B4A420A
:1023A0004A41AA42EAD138464030796C2022114392
:1023B00079644270002101708170012003B0F0BD8A
:1023C000019803B0F0BD0000F0B581B0044600688C
:1023D0008069002740073CD415460E462046403011
:1023E0000029009003D12AE08069400731D42046BB
:1023F00031462A46FFF786FD00284DD120688169C5
:1024000089062AD4FEF778F8411B2068B142EBD93F
:1024100081694907E8D4606C202108436064009A10
:10242000517037E020688169890616D4FEF764F898
:10243000206881694907EED58069400714D40026D9
:10244000204631462A46FFF75DFD0028EAD00126E6
:102450000AE03E46304601B0F0BD8169490706D525
:10246000218D00293E4602D0304601B0F0BD826980
:102470000021D2060A4602D51022C26104226264FB
:102480002022C2614368064C1C40446000984270A0
:1024900002468170002010700126304601B0F0BD68
:1024A00000E800FEF0B581B00546006880690024B0
:1024B000800622D416460F46002903D129E0806900
:1024C00080061AD4284639463246FFF71BFD0028FD
:1024D00027D1FEF711F8811B2868B942EFD981692D
:1024E0008906ECD428464030696C20221143696487
:1024F00042700021017081700124204601B0F0BDBE
:10250000FDF7FAFF286881698906EBD580698006A6
:10251000F3D40024284621463246FFF7F3FC002876
:10252000EED00124204601B0F0BDF0B581B00546E3
:10253000006880690024800716D416460F46481CA0
:1025400019D0002F26D10024284621463246FFF715
:10255000D9FC002838D1FDF7CFFF286881698907A9
:1025600028D580698007EED5204601B0F0BD2868E7
:1025700080698007F8D40024E14328463246FFF7FB
:10258000C1FC0028F3D00124204601B0F0BD8069D1
:102590008007E9D4284639463246FFF7B3FC0028C5
:1025A00012D1FDF7A9FF811B2868B942EFD98169D3
:1025B0008907ECD428464030696C202211436964B5
:1025C00042700021017081700124204601B0F0BDED
:1025D000FEE77047704780B5FEF746FA80BD70474A
:1025E000B0B5416ACA070CD18A0714D44A071CD473
:1025F0000A0724D4CA062CD48A0634D44A063CD40A
:102600004CE00122520403685C689443826A2243CE
:102610005A608A07EAD50122120403685C68944371
:10262000C26A22435A604A07E2D501229204036833
:102630005C689443026B22435A600A07DAD5012290
:10264000D20303685C689443426B22435A60CA0613
:10265000D2D50122120303689C689443826B224303
:102660009A608A06CAD50122520303689C68944383
:10267000C26B22439A604A0610D5012213050268F4
:1026800054689C43056C2C4354609D4206D103233F
:102690005B0554689C43436C23435360090607D58C
:1026A0000121C904026853688B43806C1843506051
:1026B000B0BD0000F0B583B004460646783600276A
:1026C000F760FDF719FF03462068016809071FD569
:1026D00028480090012002904105002220461D4616
:1026E00000F030FA002811D0EFF31080029981F346
:1026F000108821680A6880239A430A6080F3108852
:102700002020E0670320377003B0F0BD20682B461F
:102710000068400725D5174800900125A90500222B
:10272000204600F00FFA00281BD0EFF3108085F34D
:10273000108809214901226813688B43136080F3D4
:102740001088EFF3108085F3108821688A68AA4307
:102750008A6080F310882020B0600320377003B0B7
:10276000F0BD2020E067B0602766676638463770A6
:1027700003B0F0BDFFFFFF0180B5406A0146523152
:1027800000220A8152214252FEF73BFE80BDF0B585
:1027900081B00268014658318B888C6A222C0DD199
:1027A000928C1A40436D1A804A88521E4A809A1CA5
:1027B00042654A88002A07D001B0F0BD906908211F
:1027C0000143916101B0F0BDEFF31083012282F368
:1027D00010880924640105682E68A6432E6083F3DF
:1027E0001088EFF3108382F310880468A56895437E
:1027F000A56083F3108820238B62002343668366E1
:102800000468646824020AD5EFF3108482F3108808
:10281000950606683768AF43376084F31088046E06
:10282000012C15D10366EFF3108382F3108804683E
:10283000256810229543256083F310880368DC69BE
:10284000E40600D51A620988FEF7C0FD01B0F0BDAC
:10285000FFF766F801B0F0BDF0B581B0026801463F
:1028600058318B888C6A222C0ED1928C1A40436D81
:102870001A704A88521E4A80426D521C42654A882C
:10288000002A07D001B0F0BD906908210143916191
:1028900001B0F0BDEFF31083012282F31088092408
:1028A000640105682E68A6432E6083F31088EFF359
:1028B000108382F310880468A5689543A56083F3AC
:1028C000108820238B620023436683660468646853
:1028D00024020AD5EFF3108482F310889506066867
:1028E0003768AF43376084F31088046E012C15D12C
:1028F0000366EFF3108382F31088046825681022C2
:102900009543256083F310880368DC69E40600D5ED
:102910001A620988FEF75AFD01B0F0BDFFF700F812
:1029200001B0F0BDB0B5044600680168484A0A40ED
:10293000A16823690B4365691D431543E1690D4394
:1029400005600322120343689343E2681A4342601E
:10295000A269236A13430B221202856895431D4323
:10296000856000223B4B984206DC3D4B984210D0DC
:102970003C4B984216D014E0374B984212D0374A5D
:1029800090420ED1384800688007000F374A12582D
:1029900008E035480068800B0C220240334882581A
:1029A00000E010220125EB033148994210D1082A9A
:1029B00049D8C0467A4412795200974404442044CE
:1029C000194444441F00FEF71BFA002817D113E0F6
:1029D000082A38D87A4412795200974404342734AC
:1029E000203434342600FEF70BFA00281ED11AE0FA
:1029F000FEF714FA002802D1002524E01846400012
:102A000061684A08101800F005FB0246103A19499F
:102A10008A4218D201400007400F084310E0FEF739
:102A2000FDF9002802D100250DE0184661684A082A
:102A3000101800F0EFFA014610390E4A914202D206
:102A40002168C86000250020A066E0662846B0BD69
:102A5000F369FFEFFF4B0040004C0040003801409D
:102A6000004400400048004030100240443200085A
:102A700000127A00F0FF0000B0B55823C252416541
:102A800000238366014658314A808268002A0BD0B1
:102A900001242507AA420CD02403A2420ED10269C8
:102AA000002A04D1244A0CE00269002A08D1FF223E
:102AB00007E00269002A03D03F2202E08B8001E098
:102AC0007F228A80CB6222228A62EFF31082012168
:102AD00081F3108803689C680C439C6082F3108823
:102AE00002690B0384689C4204D1002A14D0134A63
:102AF000826603E0114B8366002A0FD0EFF3108249
:102B000081F3108809214901006803680B430360C1
:102B100082F310880020B0BD094A8266EFF310826C
:102B200081F310880068016820230B43036082F35F
:102B300010880020B0BDC046FF01000059280008E1
:102B40008F270008F0B587B015460F460668F16973
:102B50003940C91B4A424A410021AA4225D1069365
:102B60000C9C002C24D00B46611C26D1F169394005
:102B7000C91B4A424A41AA4214D1F1693940C91BD2
:102B80004A424A41AA420DD1F1693940C91B4A4221
:102B90004A41AA4206D1F1693940C91B4A424A4119
:102BA000AA42E3D0184607B0F0BD084607B0F0BD12
:102BB000FDF7A2FC032007B0F0BD02930146783177
:102BC000039101210191C9020491059006E0C969B0
:102BD0003940CA1B51425141A9424BD1FDF78CFCEF
:102BE0000699411A0323A142DCD8059801680A68B6
:102BF0005207ECD5CA6912073FD4CA692646049C1D
:102C000022423446E3D01F4604980862EFF3108254
:102C1000012181F3108809235B0105980468256868
:102C20009D43256082F31088EFF3108281F31088B2
:102C3000059803689C688C439C60059882F3108813
:102C4000026E012A0BD1EFF3108281F31088016824
:102C50000B681024A3430B60059882F31088202191
:102C6000039B99600022026682661A70D96038461A
:102C700007B0F0BD029807B0F0BD08250D62EFF374
:102C80001081019880F3108809225201059B1B686E
:102C90001C6894431C6081F31088EFF3108180F36B
:102CA0001088059A1268936883439360059B81F3AB
:102CB0001088196E01290CD1EFF31081012282F3E3
:102CC00010881A6813681024A3431360059B81F3CE
:102CD00010882021039A916000211966996611706D
:102CE000D56007B0F0BD000080B5C248FEF78AFB92
:102CF00080BDC046A8B000250F950E950D950CA877
:102D00000570FDF7BBFE1BAC201D3021FDF764FAFA
:102D1000012023901E9022271B97249510201F909E
:102D20001695159514951395129511952046FEF755
:102D3000A9F8002803D0EFF3108072B6FEE71A95C9
:102D40001995032018900724179417A801263146D7
:102D5000FDF7A4FF002803D0EFF3108072B6FEE762
:102D600014951395109710A8FDF7F4FE002803D0D2
:102D7000EFF3108072B6FEE70B941F951E95F104D9
:102D8000954802680A43026002680A40109210994E
:102D9000B10502680A43026002680A401092109965
:102DA000710402680A43026002680A401092109996
:102DB000B10402680A43026000680840109010984D
:102DC0000920C0060A90202739462A46FDF78CFBC9
:102DD0001D95212000041C9070031B907F481BACA4
:102DE0002146FDF7B5FA1E951D951C961B970A986E
:102DF0002146FDF7ADFA7A4A7A487B49516011467F
:102E0000083161C155619561D56115625562151D25
:102E10002846FDF707FC002803D0EFF3108072B6B8
:102E2000FEE700212846FDF76DFB002803D0EFF3F5
:102E3000108072B6FEE7002628463146FDF783FB78
:102E4000002803D0EFF3108072B6FEE767480C2429
:102E5000674906624662E122520246C00660466049
:102E60008460C66006610C38FEF7C4FC002803D0FD
:102E7000EFF3108072B6FEE75E485F490662466275
:102E80004B22520246C0066046608460C6600661FE
:102E90000C38FEF7AFFC002803D0EFF3108072B6B9
:102EA000FEE7524855A1012264273B46FEF73AFD52
:102EB0005648FDF73BFA0B98000408900CAA1670D0
:102EC0000097BC2101232846FDF7C6FC0028F5D158
:102ED0000097BD210DAC012328462246FDF7F8FBE3
:102EE0000028EBD1A0570028E8D50CAA0B98107049
:102EF0000097BC2101232846FDF7AEFC0028DDD158
:102F00000097BD210DAA09232846FDF7E1FB002803
:102F1000D4D10DA8017A079181790691C1790591E3
:102F20004179049101790391C178029181780991E5
:102F3000407801900D9C012264230A932B4834A110
:102F4000FEF7F0FC20040899084001990902401896
:102F500009994018FDF771F9214C2070010EE170BC
:102F6000010CA170000A6070042209921F482146DA
:102F70000A9BFEF7D7FC02980004089908400399C1
:102F80000902401804994018FDF757F9010EE17045
:102F9000010CA170010A6170207014482146099A41
:102FA0000A9BFEF7BFFC0598000206998907890B6A
:102FB000081807994018FDF740F9010EE170010C5F
:102FC000A170010A6170207008482146099A0A9B85
:102FD000FEF7A8FC72E7C046141002400008004843
:102FE000700000200B02000000540040C8000020C8
:102FF0000044004050010020004800404D41583836
:103000003631353020544553540A0000B80B0000C7
:103010003100000043088B421AD3002203098B427F
:1030200079D3030A8B425ED3030B8B4242D3030C4A
:103030008B4227D30902FF2212BA030C8B4202D320
:103040001212090203D0030B8B4233D31AE0D3E0F0
:10305000411A8041401C704703460B4371D443081A
:103060008B42F5D3002203098B4254D3030A8B42CF
:1030700039D3030B8B421DD3030C8B4202D39446EE
:103080006EE0090AC30B8B4201D3CB03C01A524135
:10309000830B8B4201D38B03C01A5241430B8B42EB
:1030A00001D34B03C01A5241030B8B4201D30B03D4
:1030B000C01A5241C30A8B4201D3CB02C01A5241FB
:1030C000830A8B4201D38B02C01A5241430A8B42BE
:1030D00001D34B02C01A5241030A8B4201D30B02A7
:1030E000C01A5241CDD2C3098B4201D3CB01C01AC1
:1030F000524183098B4201D38B01C01A52414309CB
:103100008B4201D34B01C01A524103098B4201D3B8
:103110000B01C01A5241C3088B4201D3CB00C01A25
:10312000524183088B4201D38B00C01A524143089D
:103130008B4201D34B00C01A5241411A5241100038
:103140007047CA0F00D04942031000D34042534099
:1031500000229C4603098B422DD3030A8B4212D3D3
:103160008901FC2212BA030A8B420CD38901921105
:103170008B4208D3890192118B4204D3890137D045
:10318000921100E08909C3098B4201D3CB01C01A17
:10319000524183098B4201D38B01C01A524143092A
:1031A0008B4201D34B01C01A524103098B4201D318
:1031B0000B01C01A5241C3088B4201D3CB00C01A85
:1031C000524183088B4201D38B00C01A5241D9D29D
:1031D00043088B4201D34B00C01A5241411A00D21E
:1031E00001465241104663465B1000D3404270478F
:1031F00063465B1000D3404201B50021004201D07C
:10320000C9430846C046C04602BD00000000000099
:103210000000010203040607080900000000010283
:10322000030402030405060708090A0B0C0D0E0F20
:1032300010100102030405060708090A0B0C0D0E05
:103240000F10000000000000040000000800000053
:10325000020000007832000800000020100000008A
:10326000040100088832000810000020D007000088
:103270002001000800000000010000000400000020
:083280003132330000127A0024
:04000005080000C12E
:00000001FF
